:020000040800F2
:1000000008040020D5000008F50500086501000877
:1000100000000000000000000000000000000000E0
:100020000000000000000000000000003907000888
:100030000000000000000000F70500083B07000872
:10004000E7000008E7000008E9060008E7000008EC
:10005000E7000008E7000008E7000008E7000008E4
:10006000E7000008E7000008E7000008E7000008D4
:10007000E7000008E700000800000000E7000008B3
:1000800000000000E7000008000000000000000081
:10009000E700000800000000E7000008E700000893
:1000A000E7000008E7000008E7000008E700000894
:1000B000E7000008E7000008E7000008E700000884
:1000C0000348854600F03CF800480047ED0800086A
:1000D000080400200448804704480047FEE7FEE784
:1000E000FEE7FEE7FEE7FEE735080008C10000086E
:1000F00030B50B46014600202022012409E00D46C0
:10010000D5409D4205D31D469540491B2546954047
:1001100040191546521E002DF1DC30BDD2B201E06F
:100120000270401C491EFBD270470022F6E710B552
:1001300013460A4604461946FFF7F0FF204610BD55
:10014000064C0125064E05E0E36807CC2B430C3C2A
:1001500098471034B442F7D3FFF7B6FF780A000887
:10016000980A0008FEE7000010B50479002325492D
:100170000268002C3DD0002A42D04479002C0FD0D8
:10018000012C15D0022C16D001238279002A37D0F9
:10019000012A18D0022A1FD0032A21D001232FE0E0
:1001A0004C6894434C6002680C6814430C60ECE7A4
:1001B0000C68944301E00C6814430C6002684C68BE
:1001C00014434C60E1E70268CC689443CC6000685B
:1001D0008A6802438A6013E002688C68944302E0F4
:1001E00002688C6814438C600068CA680243CA6065
:1001F00006E00C6894430C6000684A6882434A60D9
:10020000184610BD00040140F0B500243EE0012373
:100210002A46A3401A4038D04F6806681346534315
:100220005D005D19AE435F433E4306604E68012E9C
:1002300001D0022E05D18F6886685F43AE433E43EE
:1002400086600F69C668AE431D467D432E43C66077
:100250004D68022D19D1FF2A0AD84E69056A534309
:1002600053431A01D21A954373431D4305620CE0B0
:10027000130A1A465A435A435A4313019E1A4D69A8
:10028000436A6A43B34313434362641C0A681546D6
:10029000E240BCD14A68012A01D0022A06D1CB68CB
:1002A00041682A4691435A43114341600020F0BD02
:1002B00010B57D21C900FFF71BFF0449401E4861AE
:1002C000002088610520086110BD000000E000E00A
:1002D0000348016901229204114301617047000043
:1002E00040100240F8B5204D01270024AE00FF0366
:1002F000032802D00C2824D021E000F03BF81B4951
:1003000040182ED0012809D0022813D000F09AF905
:1003100000F072F900F08AF9044610E000F032F8BB
:1003200000280CD000F036F8002801D02C4606E05A
:10033000344604E000F036F8002800D03C46204661
:10034000F8BD00F017F80A4940180AD00428E5D093
:100350000828EFD000F076F900F04EF900F05AF9D5
:10036000DAE700F06FF9D7E700093D00FFFFFCFF77
:10037000FCFFF3FF0249C9680140000408437047CD
:1003800040100240024800684007C00F704700005C
:100390000010024002480068C006C00F704700000D
:1003A00000100240024800698005C00F704700003D
:1003B0004010024018B57D21C9000091C16800229B
:1003C0004906C90F15D1491EC160C1680B4B4906CA
:1003D000C90F0CE01969C903C90F02D00099491E61
:1003E0000091C168009C4906C90F002C03D0002968
:1003F000F0D0104618BD0122FBE7000000E000E04D
:1004000070B504460126CA200D4660625320606222
:100410002046FFF7CFFF012817D02968A0684022A7
:1004200090430843A060A8682169C90BC903014330
:100430002161A98820697F2212049043090408439E
:1004400020618020C043E0600026FF2060623046CB
:1004500070BD0000014908607047000000000020E6
:1004600070B5044600680D460126304041D1E96868
:100470006868AA69084329691143084321681E4A2C
:10048000114008432060A96860680322120390436A
:10049000084360606969A068121190430843A06036
:1004A0001648844201D1032003E01548844220D13C
:1004B0000C20FFF717FF00281BD02968002918D04F
:1004C0000123AA690026DB039A420CD140004A08A6
:1004D0008018FFF70DFE81B20A4808400907490F4E
:1004E0000143E16005E04A081018FFF701FE80B201
:1004F000E060304670BD0000F369FFEF0038014056
:1005000000440040F0FF000008B504480221C26A20
:100510000A43C262C06A0840009008BD0010024051
:100520003EB50024009401940294FFF7D1FE7F2091
:100530000190FF200290009469460248FFF760FF97
:100540003EBD000000280040F0B58FB01C2106A879
:10055000FFF7EBFD18216846FFF7E7FD2248012170
:10056000426B89030A434263426B0A400D92C26A9E
:1005700002210A43C262C06A002408400D900D4661
:1005800040200326039404946A46059461C2174FE1
:1005900069463846FFF738FE8020039404946A4683
:1005A000059461C269463846FFF72EFEE1204002FD
:1005B00006900794089409940B940C940C200C4C0E
:1005C0000A9006A92046FFF74BFF60680921C9027F
:1005D00088436060A0682A218843A06020680121C8
:1005E000084320600FB0F0BD00100240000400502E
:1005F00000380140704770470449C968F022114033
:10060000034A0909515CC8407047000000100240CD
:10061000540A00080349C968034A4905490F515C57
:10062000C8407047001002406D0A00080349C968BD
:10063000034A8904490F515CC840704700100240CA
:100640006D0A000810B50F49CA680C2002400E4818
:1006500005D0042A09D0082A0FD00C2A0FD04968E7
:100660000904490F491C884010BDFFF793FE00287C
:1006700001D0064810BD064810BD064810BD00F068
:100680000BF810BD001002400080000000093D0082
:100690000024F40000127A0010B50E4CE06801212D
:1006A0000904084205D1FFF775FE00280FD00A4A59
:1006B00000E00A4AE0680002810FE068084B80020F
:1006C000000F185C491C5043FFF712FD10BD054A8E
:1006D000F0E700000010024000093D0000127A001F
:1006E000640A00080024F40010B5094CE0684005D5
:1006F000C00F0CD007A000F0C7F8E06880210840C8
:100700000B494018E06001200A490005486110BD0E
:10071000002800404952516E20574B5550205469D3
:100720006D657220456E7465722E2E2E0D0A0000C6
:100730007FFBFFFF000401407047704770B53948E8
:10074000012102688A430A4302600068CA023649EE
:1007500008680323DB0298431043086033480368AA
:1007600001221343036003685B07DB0FFBD0436880
:100770001F242402A34301242403234343602B4C5E
:10078000403423691343236122699207D20FFBD0BF
:100790000A68FF2301331A430A602269D9020A4317
:1007A000226122698A4322618B102169032212048B
:1007B00091431943216121695A0011432161C168A4
:1007C000FD2212049143112292041143C160016879
:1007D000DA011143016001688901C90FFBD0C168CA
:1007E000F0229143C160C168072212029143C160A7
:1007F000C168D2009143C160C26803218A430A43A1
:10080000C2600C22C16811400C29FBD1084D28465A
:10081000FFF74EFD2846FFF71DFEE06880088000C8
:10082000E06070BD002002400070004000100240F7
:100830000048E80110480168821511430160C16851
:100840000E4A1140C16001680D4A11400160816883
:1008500049084900816001680122920491430160C6
:10086000C168FD2212049143C16000210161054964
:10087000C003886070470000001002400C40FF88F1
:10088000F6FFF6FE00ED00E010B5024A024900F066
:1008900014F810BDD90800080400002002E008C8C0
:1008A000121F08C1002AFAD170477047002001E0EA
:1008B00001C1121F002AFBD17047F8B516460F463A
:1008C0000446002503E03946B047641C6D1C2078BF
:1008D0000028F8D12846F8BD0349CA691206D20F8C
:1008E000FBD0C2B28A6270470038014008B5124896
:1008F0000121426B0A434263416BC907C90F009152
:10090000826B01040A438263806B08400090FFF70A
:1009100015FFFFF7F9FDFFF703FEFFF715FE7D203A
:10092000C00000F03DF805A0FFF7AEFF0EA0FFF7F6
:10093000ABFF30BF14A0F7E7001002405254432031
:10094000BBBDD0D1B6A8CAB1C6F7D6DCC6DABBBD2E
:10095000D0D1B5CDB9A6BAC4C4A3CABD20B2E2CA2B
:10096000D42E2E2E0D0A0000456E7465722050574D
:10097000525F456E74657244454550534C45455031
:100980004D6F64650D0A0000517569742020505741
:10099000525F456E746572574B5550210D0A000029
:1009A000FEB57D260546F600FFF792FC0120000506
:1009B00000210090019101206A46107151719071DF
:1009C0006846FFF7D1FB1B4CCA206062532060626F
:1009D000A0682715B843A06003E0761E3604360CE5
:1009E00023D0E0684007C00FF7D1A1680220C908F2
:1009F000C9000143A1600A2045436069000C00045E
:100A0000284360610C490868FF221304984308607A
:100A10000A4904200860A068012189030843A060F6
:100A2000A0683843A0606262FEBD05A0FFF72CFFFE
:100A3000DBE700000028004000E400E000E100E007
:100A400052544320496E6974204552524F520D0A48
:100A5000000000000000000000000000010203048C
:100A600006070809030406080C10182030000000CF
:100A70000001020304000000980A000800000020A2
:100A8000080000009C080008A00A000808000020D8
:100A900000040000AC080008000020000000000076
:04000005080000C12E
:00000001FF
